:020000040800F2
:10000000E8060020890100085B1300084912000877
:10001000591300088F020008C513000800000000F3
:100020000000000000000000000000005F13000856
:10003000A9020008000000005D1300086113000819
:10004000A3010008A3010008A3010008A301000800
:10005000A3010008A3010008A3010008A3010008F0
:10006000A3010008A3010008A3010008A3010008E0
:10007000A3010008A3010008A3010008A3010008D0
:10008000A3010008A3010008A3010008A3010008C0
:10009000A3010008910200089D020008A3010008C6
:1000A000A3010008A3010008A3010008A3010008A0
:1000B000A3010008A3010008A3010008A301000890
:1000C000A3010008A3010008A3010008A301000880
:1000D000A3010008A3010008A3010008A301000870
:1000E000AB020008A3010008A301000800F002F819
:1000F00000F03AF80AA090E8000C82448344AAF188
:100100000107DA4501D100F02FF8AFF2090EBAE885
:100110000F0013F0010F18BFFB1A43F0010318473B
:100120007C1300009C130000103A24BF78C878C1EB
:10013000FAD8520724BF30C830C144BF04680C60ED
:10014000704700000023002400250026103A28BF35
:1001500078C1FBD8520728BF30C148BF0B60704739
:100160001FB51FBD10B510BD00F058F81146FFF7C0
:10017000F7FF01F039F900F076F803B4FFF7F2FF6A
:1001800003BC00F07DF8000009488047094800479B
:10019000FEE7FEE7FEE7FEE7FEE7FEE7FEE7FEE737
:1001A000FEE7FEE704480549054A064B7047000094
:1001B000C3130008ED000008E8000020E806002056
:1001C000E8020020E80200204FF0000200B51346CC
:1001D00094469646203922BFA0E80C50A0E80C5067
:1001E000B1F12001BFF4F7AF090728BFA0E80C5018
:1001F00048BF0CC05DF804EB890028BF40F8042B11
:1002000008BF704748BF20F8022B11F0804F18BF7D
:1002100000F8012B7047704770477047754600F033
:100220002BF8AE4605006946534620F00700854688
:1002300018B020B5FFF7B6FFBDE820404FF000062C
:100240004FF000074FF000084FF0000B21F00701BE
:10025000AC46ACE8C009ACE8C009ACE8C009ACE801
:10026000C0098D46704710B50446AFF300802046A4
:10027000BDE81040FFF781BF0048704784000020B0
:1002800001491820ABBEFEE7260002007047FEE7DA
:10029000014800F07BB9000028000020014800F070
:1002A00075B900002800002070474FF4804000F02E
:1002B000B3BB90F82020012A07D0022A05D0416A5A
:1002C00041F48021416201207047006842690A437D
:1002D000426100207047F0B590F820500468A4688F
:1002E000012D05D0022D03D0416A41F480215DE04B
:1002F00014F0406F01D1E50055D5C4F30164022C20
:1003000003D9416A41F4000150E00125A5401D6078
:100310008D684FF4C0739DB1CE6835434E6845EA91
:10032000C605066803EB0417F5514FF4C27507685C
:1003300005EB04150E697E51097D012905D009E000
:100340000E88CD6845EA4655EBE701684E5946F4FC
:1003500080764E511179D579567941EA05619579C2
:100360002D0445EA062529434FF4C676056806EBB9
:100370000416A9511178D57841EA0561957852782B
:100380002D0445EA022211434FF4C475026805EBBF
:1003900004155151006803EB0411425842F0010268
:1003A00042500020F0BD416A41F400114162012039
:1003B000F0BD000010B590F820300268012B07D086
:1003C000022B05D0416A41F480214162012010BD19
:1003D000D2F8000240F00100C2F80002087D00F0EF
:1003E0001F0301209840D2F81C328343C2F81C320C
:1003F000CB69B3B9D2F80C328343C2F80C328C8982
:100400004B6864F31F434C6902EBC404C4F84032E8
:100410000C890B6864F31F434C6902EBC404C4F8F5
:100420004432CB69012B16D1D2F80C320343C2F807
:100430000C320C884B6864F31F434C6902EBC40414
:10044000C4F840320C89CB6864F31F434C6902EB5B
:10045000C404C4F844328B69002BD2F804320FD0A4
:1004600053EA0003C2F804320B69002BD2F81432AD
:1004700008D00343C2F81432096A012904D008E005
:100480008343EFE78343F5E7D2F81C120143C2F838
:100490001C12D2F8000220F00100C2F80002002075
:1004A00010BD704730B590F82040012C05D0022CCB
:1004B00003D0416A41F480215DE00468002955D0F1
:1004C0002469A40754D04FF4D874056804EB0114D0
:1004D0002D5915F00405956005682D594ED0ED088D
:1004E000556005682C5904F00204D4604FF4DA74A6
:1004F000056804EB01142D5905F00F051561056819
:100500002D59C5F30725956105682C59240C5461B4
:100510004FF4DC72046802EB0112A4581C700468EA
:10052000A458240A5C700468A458240C9C700468C5
:10053000A258120EDA704FF4DE72046802EB011258
:10054000A4581C710468A458240A5C710468A45857
:10055000240C9C710468A258120EDA71006881B1F3
:10056000016941F020010161002030BDE468A8E785
:10057000416A41F400114162012030BD6D0D1560EA
:10058000AFE7C16841F02001C160EDE72DE9F05F00
:100590000546006800244669D0F804908768D0F8C2
:1005A0000CB0D0F810A0D0F81880F10748D0F907A7
:1005B00014D001218160B80703D5284600F0FFF967
:1005C0000CE0780702D54FF4006407E0380702D545
:1005D0004FF4805402E0284600F0F0F9F80516D5F3
:1005E00029684FF480708860B80503D5284600F06C
:1005F000E8F90CE0780502D544F4005407E038052A
:1006000002D544F4804402E0284600F0D9F9F8030A
:1006100016D529684FF480308860B80303D5284682
:1006200000F0D1F90CE0780302D544F4004407E06F
:10063000380302D544F4803402E0284600F0C2F9C1
:10064000300707D55FEACB6004D52968102044F451
:100650000074C86070074FF0080707D55FEA0B7099
:1006600004D52868C760284600F062F9B00706D5AF
:100670002868C068800702D0284600F05BF9700641
:1006800007D55FEACA6004D52968102044F4806465
:100690000861B00607D55FEA0A7004D528680761CB
:1006A000284600F05BF9F00606D528680069800747
:1006B00002D0284600F053F9B00308D55FEAC960BC
:1006C00005D5296810204860284600F049F9F00354
:1006D00007D55FEA097004D528684760284600F00E
:1006E00073F9300446D55FEA497040D5F00504D56A
:1006F0005FEAC87001D044F00104B00504D55FEA98
:10070000887001D544F00204700504D55FEA487092
:1007100001D544F00404300529D518F0700F26D017
:1007200008F07000402815D006DC102809D02028D9
:100730000AD0302816D10AE050280ED0602811D1F6
:100740000EE044F008040DE044F010040AE044F028
:10075000200407E044F0400404E044F0800401E099
:1007600044F480742868816921F0700181612968EE
:1007700004204860002C05D0686A2043686228463F
:10078000FFF78FFEBDE8F09F70B5040003D094F82A
:10079000200010B104E0012070BD204600F082F876
:1007A0002068016841F00101016000F03FFA054650
:1007B000052604E000F03AFA401B0A2811D8206808
:1007C0004068C007F6D02068016821F0020101608E
:1007D00000F02CFA05460BE000F028FA401B0A282E
:1007E00006D9606A40F40030606284F82060D2E785
:1007F000206840688007EFD4207E012820680168C7
:100800003DD021F080010160607E012820680168F0
:1008100038D021F040010160A07E012820680168E5
:1008200033D021F020010160E07E012820680168BA
:100830002ED041F010010160207F0128206801685E
:1008400029D021F008010160607F0128206801683B
:1008500024D021F004010160D4E902010843D4E965
:100860000412114308436168491E08432168C861A6
:1008700000206062012084F82000002070BD41F05B
:100880008001C0E741F04001C5E741F02001CAE71F
:1008900021F01001CFE741F00801D4E741F0040155
:1008A000D9E7000010B586B00021009101910291B6
:1008B000039100681B49884232D11B48C16941F04D
:1008C0000071C161C16901F000710491816941F059
:1008D000040181618069154C00F0040004904FF41C
:1008E000006000906946204600F0A2F8A014009035
:1008F00002200190032003906946204600F098F8FA
:1009000000221146152000F0FDF9152000F0ECF949
:1009100000221146162000F0F5F9162000F0E4F947
:1009200006B010BD00640040001002400008014005
:100930007047000010B5074B074A0021FFF7B2FDD2
:1009400005480069022803D10249012010390860D6
:1009500010BD0000100000206800002070477047A4
:100960007047000070B5044690F82000012804D0BC
:10097000606A40F40020606218E0022084F82000E1
:100980002068016821F00101016000F04FF905467F
:100990000EE000BF00F04AF9401B0A2808D9606A3F
:1009A00040F400306062052084F82000012070BD12
:1009B00020684068C007EDD1606270BD7047704725
:1009C00070477047704770477047000070B5044625
:1009D00000F02CF90546601C02D00448007804445D
:1009E00000F024F9401BA042FAD370BD180000208B
:1009F000B0F5804F0BD106486421024601702821D2
:100A000041700449031FA1F12800FFF764BC70473F
:100A10000800002050000020044910B50A68024276
:100A200002D00860FFF7E4FF10BD0000140401408D
:100A30002DE9F84FDFF8B891002409F1040A0AF112
:100A4000040B23460F270BF1040EC9E00125A54036
:100A50002A40AA427DD1674ED1F804C0ACEB06080B
:100A6000B44532D014DCBCF1030F3AD009DCBCF140
:100A7000000F2AD0BCF1010F1CD0BCF1020F31D104
:100A80001DE0BCF1110F17D0BCF1120F2AD119E0F3
:100A9000B8F5881F19D006DCB8F5803F15D0B8F539
:100AA000801F1FD111E0B8F5001F0ED0B8F5041F4C
:100AB00018D10AE0CB6815E0CB681B1D12E0CB68AB
:100AC00008330FE0CB680C330CE08B682BB1012BA3
:100AD0004FF0080303D0456104E0042302E0056100
:100AE00000E00023FF2A01D8064601E000F10406D9
:100AF0004FEA840501D9A5F12005D6F8008007FA50
:100B000005FC28EA0C0803FA05F548EA0508C6F8CA
:100B100000804D68ED0062D5374DAE6946F00106A4
:100B2000AE61AD6924F0030605F001050095334D73
:100B300006EB050CDCF80850A607360F07FA06F896
:100B400025EA0805DFF8B880404503D14FF00008DA
:100B500017E044E0DFF8AC80404502D14FF00108D7
:100B60000FE0DFF8A480404502D14FF0020808E012
:100B7000DFF89880404502D14FF0030801E04FF0C4
:100B8000040808FA06F848EA0508CCF808804D6819
:100B9000D9F80060ED034D4601D5164300E09643B9
:100BA0002E604D68DAF80060AD03554601D5164356
:100BB00000E096432E604D68DBF80060ED025D4674
:100BC00001D5164300E096432E604D68DEF80060C4
:100BD000AD02754601D5164300E096432E60641CB5
:100BE0000D682A46E5407FF431AFBDE8F88F00007C
:100BF00000040140000011100010024000000140FC
:100C000000080140000C01400010014000140140A8
:100C1000C26821EA02030A4043EA024101617047C7
:100C20000AB1016170470904FBE7000001488068D0
:100C300070470000180000200248816802781144C3
:100C40008160704718000020074810B5016841F026
:100C500010010160032000F075F80F2000F006F885
:100C600000F024F8002010BD0020024070B50D4DAA
:100C700004464FF47A712878B1FBF0F00A4909680C
:100C8000B1FBF0F000F0CCFA48B9102C07D20022EA
:100C90002146501E00F036F800206C6070BD012027
:100CA00070BD000018000020240000200C4808B58A
:100CB000816941F001018161816901F001010091C7
:100CC000C16941F08051C161C06900F0805000905D
:100CD0000448416821F0E06141F00071416008BDC5
:100CE0000010024000000140002809DB00F01F0254
:100CF000012191404009800000F1E020C0F800117E
:100D000070470000F0B40E4B1B680C46C3F302237F
:100D1000C3F10705042D00D90425191D072901D2A7
:100D2000002300E0DB1E012606FA05F1491E2140E2
:100D300099409E40761E16403143F0BC00F043BB04
:100D40000CED00E0064900F0070208684FF6FF03CB
:100D5000184040EA0220034A104308607047000030
:100D60000CED00E00000FA052DE9F0470F46050004
:100D700061D0434E306800F00700B84209D23068B5
:100D800020F0070038433060306800F00700B842B8
:100D900051D128683B4C810712D5400703D56068C4
:100DA00040F4E06060602878000703D5606840F494
:100DB000605060606068A96820F0F00008436060DF
:100DC0002878C00728D06868012810D02168022838
:100DD00010D0890700292EDA616821F00301014350
:100DE0006160FFF723FF804641F288390DE02168FA
:100DF0008903EFE78901EDE7FFF718FFA0EB080192
:100E0000494502D90320BDE8F0876068696800F0B1
:100E10000C00B0EB810FEFD1306800F00700B84252
:100E20000BD9306820F0070038433060306800F09C
:100E30000700B84201D00120E5E72878400705D532
:100E40006068E96820F4E060084360602878000783
:100E500006D56068296920F4605040EAC1006060EE
:100E600000F018F86168084AC1F30311515CC840EA
:100E70000649086006480068FFF7F8FE0020C2E750
:100E800000200240001002408C14000824000020C2
:100E90001C00002012A185B00FC98DE80F0014A01E
:100EA000144A006804905168134801F00C03042BA5
:100EB00010D0082B0ED1C1F38343C9031DF80300E2
:100EC0000AD5516804AAC1F34041515C0A4A504313
:100ED000B0FBF1F005B0704708494843FAE700005D
:100EE00002030405060708090A0B0C0D0E0F10106B
:100EF000010200000010024000127A0000093D00CB
:100F00002DE9F84F040070D02078C04DC00749D0BB
:100F10006868C0F38100012807D06868C0F38100C9
:100F2000022809D16868C00306D52868800339D52E
:100F300060680028E7D035E06068B0F5803F0BD0EE
:100F400010B1B0F5A02F11D0286820F480302860AF
:100F5000286820F4802002E0286840F4803028606F
:100F6000606890B1FFF762FE06460AE0286840F428
:100F700080202860F0E700BFFFF758FE801B642840
:100F800073D828688003F7D50CE0FFF74FFE0646BC
:100F900005E000BFFFF74AFE801B6428F0D82868F0
:100FA0008003F7D420789A4E80074FF001094FF064
:100FB000000839D5686810F00C0F07D06868C0F3D6
:100FC0008100022809D16868C00306D42868800718
:100FD00014D52069012808D110E02069B0B1C6F805
:100FE0000090FFF723FE074605E00AE1FFF71EFE2B
:100FF000C01B0228C4D828688007F7D52868616913
:1010000020F0F80040EAC10028600DE0C6F800803A
:10101000FFF70CFE074604E0FFF708FEC01B02289E
:1010200023D828688007F7D4207800072CD5794882
:10103000A169D9B1C0F80090FFF7F8FD074604E0B8
:10104000FFF7F4FDC01B02280FD8686A8007F7D5A8
:1010500071484FF4FA510068B0FBF1F0009000BF06
:101060000098411E0091FAD20EE080E0C0F80080A6
:10107000FFF7DCFD074604E0FFF7D8FDC01B0228A0
:1010800075D8686A8007F7D42078400760D5E8698A
:101090000027C00008D4E86940F08050E861E869A2
:1010A000012700F0805000905C480168C90513D406
:1010B0000168834641F480710160FFF7B7FD824605
:1010C00006E000BFFFF7B2FDA0EB0A0064284ED88F
:1010D000DBF80000C005F5D5E06801280AD008B1AA
:1010E000052813D0286A20F001002862286A20F021
:1010F000040002E0286A40F001002862E06841F242
:10110000883B98B1FFF792FD82460BE0286A40F0D9
:1011100004002862EEE700BFFFF788FDA0EB0A019C
:1011200059455AD8286A8007F6D50CE0FFF77EFDAE
:10113000824605E0FFF77AFDA0EB0A0159454CD83D
:10114000286A8007F6D41FB1E86920F08050E86172
:10115000E06988B36968C1F38101022944D002289B
:10116000C6F8608004D0FFF761FD044638E034E043
:10117000FFF75CFD074604E0FFF758FDC01B02289F
:101180002BD828688001F7D4206AB0F5803F05D1BC
:101190006868A16820F4003008436860D4E9080159
:1011A0000843696821F4741108436860C6F86090C8
:1011B000FFF73CFD044606E025E000BFFFF736FDE3
:1011C000001B022809D828688001F7D51BE000BF62
:1011D000FFF72CFD001B022802D90320BDE8F88F81
:1011E00028688001F4D40EE00128F7D06868226AEC
:1011F00000F48031914204D1616A00F47010884299
:1012000001D00120EAE70020E8E7000000100240DA
:10121000000042428004424224000020007000404E
:1012200010B5401EB0F1807F01D3012010BD4FF0FA
:10123000E02460610F21601700F0C5F80020A06174
:1012400007202061002010BDFEE7000030B51748E0
:101250008BB01549016012250024C0E901544FF4F8
:101260008031C0E903414461047644768476C476D3
:1012700004774477FFF788FA08B172B6FEE74FF4B7
:10128000187101200890CDE90445CDE90014CDE99D
:101290000214CDE906401420099069460348FFF77F
:1012A00089F80BB030BD0000006400402800002029
:1012B00070B586B0002424480094019402940394ED
:1012C000816941F010018161816901F0100104918F
:1012D000816941F020018161816901F0200104915F
:1012E000816941F0040181618069184E00F00400B9
:1012F0004FF400550490002229463046FFF790FC39
:101300000220CDE90240009501256946019530464D
:10131000FFF78EFBA80300900D48CDE90104694654
:101320003046FFF785FBCDE9005469460948029431
:10133000FFF77EFB002211462820FFF7E3FC282060
:10134000FFF7D2FC06B070BD001002400010014053
:101350000000111000080140FEE7FEE770477047EB
:10136000FFF76ABC30B58FB028216846FEF72CFF26
:1013700014210AA8FEF728FF01210804CDE9001076
:101380000024029402250491CDE907504FF4E010A7
:1013900009906846FFF7B4FD08B172B6FEE70F206A
:1013A000CDE90A054FF48060CDE90C4002210AA87E
:1013B0000E94FFF7D9FC002801D072B6FEE70FB0FB
:1013C00030BD7047FEE70907090E002804DB00F175
:1013D000E02080F80014704700F00F0000F1E020DA
:1013E00080F8141D70470000FFF72EFCFFF7BAFFCE
:1013F000FFF75EFFFFF72AFF2148FFF7B3FA02214C
:101400001F48FEF756FF1E480221283040F23112D5
:1014100001610421816000214260C1601948C82235
:10142000DFF864800270142242704FF4005700F11C
:1014300008058A468146A0F108064FF0640B306823
:101440000028FCD0002407E039464046FFF7E0FBC7
:101450002878FFF7BBFA641C6878A042F4DCC6F871
:1014600000A089F800B0282189F80110054B044933
:101470001B1F1A1D28310248FEF72DFFDFE7000071
:10148000280000200800002000100140000000009B
:10149000000000000102030406070809BC1400084C
:1014A000000000202800000028010008E4140008C3
:1014B00028000020C00600004401000800000000D1
:1014C000000000000000000000000000000000001C
:1014D00000000000010000001000000000000000FB
:0414E0000024F400F0
:04000005080000ED02
:00000001FF
